:020000040800F2
:10000000380400208D010008893100088B31000878
:100010008F3100089331000897310008000000007C
:100020000000000000000000000000009D310008FA
:100030009B310008000000009F310008A13100083A
:10004000A3310008A5310008A7310008A931000834
:10005000AB310008AD310008AF310008B131000804
:10006000B3310008B5310008B7310008A30100081A
:10007000A3010008A3010008A3010008A3010008D0
:10008000A3010008A3010008A3010008C93100086A
:10009000CB310008D3310008D5310008D731000832
:1000A000D9310008DB310008DD310008DF310008FC
:1000B000E1310008E3310008E5310008E7310008CC
:1000C000E9310008EB310008ED310008EF3100089C
:1000D000F1310008F3310008073200080932000846
:1000E0000B3200080D3200080F32000800F002F851
:1000F00000F03CF80AA090E8000C82448344AAF186
:100100000107DA4501D100F031F8AFF2090EBAE883
:100110000F0013F0010F18BFFB1A43F0010318473B
:10012000F836000018370000103A24BF78C878C1AC
:10013000FAD8520724BF30C830C144BF04680C60ED
:10014000704700000023002400250026103A28BF35
:1001500078C1FBD8520728BF30C148BF0B60704739
:100160001FB503F0EAFA1FBD10B510BD03F0A9FAE0
:100170001146FFF7F5FF01F035FC03F0C7FA03B4B1
:10018000FFF7F2FF03BC03F0D1FA00000848004774
:10019000FEE7FEE7FEE7FEE7FEE7FEE7FEE7FEE737
:1001A000FEE7FEE703480449024A044B704700009B
:1001B000ED0000083802002038040020380200203A
:1001C00010B504462CB90120FB49096808820020BB
:1001D00010BDFA49096808688047F74800680A3086
:1001E000F6E710B5F4480068C078F54949788842C8
:1001F00013DCF1480068807878B9EF48006880889F
:1002000058B9ED480068C078EB4909688872EB4935
:10021000096848688047002010BD0220FCE710B53F
:1002200004462CB90120E44909680882002010BD69
:10023000E249096888688047DF4800680C30F6E7C3
:1002400010B5DD4B1B68D978DB4B1B685879DD4B4B
:100250001B689A6990470446D7480068807AE8B1DD
:100260003CB9D5480068007918B9D348006880784F
:1002700008B1022010BD8CB9D0490968C868804710
:10028000CD4800684079CC490968C872CA480068FE
:10029000C078C949096808730020EBE70220E9E744
:1002A00010B504462CB90220C34909680882002011
:1002B00010BD0020C4490880BF480068007810F0D5
:1002C0007F0F1CD1BC490968487A10F0200F05D077
:1002D000BD49097841F00201BB4A117010F0400F8E
:1002E00006D0B949097801F0FE01B74A117005E05E
:1002F000B549097841F00101B34A11703AE0AE48BE
:100300000068007800F07F00012801D1AE48CFE7F7
:10031000A9480068007800F07F00022828D1A64A8A
:100320001268517901F00F0011F0800F0FD0A74A29
:1003300002EB8002D2F8002C02F03002102A16D113
:10034000A14A127842F001029F4B1A700FE09F4AB7
:1003500002EB8002D2F8002C02F44052B2F5805F2A
:1003600005D1994A127842F00102974B1A7001E0C8
:1003700000209DE79149096808698047924897E7FE
:100380002DE9F0478C480068007800F07F08B8F14C
:10039000000F0AD188480068407A00F0DF008649E3
:1003A000096848720020BDE8F087B8F1020F7DD1DE
:1003B00081480068408818B97F480068007908B112
:1003C0000220F0E7DFF8F8917B480068477927F0D2
:1003D00080052C4678480068407910F0800F07D0DF
:1003E0007A4800EB8400D0F8000C00F0300606E0FC
:1003F000764800EB8400D0F8000C00F4405699F8E1
:100400000000A84204D91EB16B480068807A08B980
:100410000220C8E717F0800F10D06C4800EB840072
:10042000D0F8000C00F03000102845D1E0B201F007
:1004300043F83021E0B200F0DBFE3DE0634800EB22
:100440008400D0F8000C00F44050B0F5805F33D148
:10045000CCB95F4890F82C10E0B201F0C2F85B49CB
:1004600001EB8401D1F8001C89B24BF68F7201EACE
:10047000020080F4805080F40050544901EB840164
:10048000C1F8000C18E0E0B200F0FDFF4F4901EBAD
:100490008401D1F8001C89B24BF68F7201EA020088
:1004A00080F4805080F40050484900E00AE001EBFD
:1004B0008401C1F8000C00BF4049096848698047C1
:1004C000002070E700BF02206DE72DE9F0413A48B7
:1004D0000068467926F080073C4637480068407936
:1004E00010F0800F07D0394800EB8400D0F8000CE2
:1004F00000F0300506E0354800EB8400D0F8000C31
:1005000000F440552E480078A04208D92A480068D7
:10051000408820B91DB128480068807A10B90220AF
:10052000BDE8F08116F0800F11D0284901EB84015D
:10053000D1F8001C89B248F6BF7201EA020080F0CF
:100540001000224901EB8401C1F8000C11E01F49A1
:1005500001EB8401D1F8001C89B24BF68F7201EADD
:10056000020080F48050194901EB8401C1F8000CAD
:1005700000BF12490968886980470020D0E710B59C
:100580000D480068407A40F020000B490968487225
:100590000A490968C8698047002010BD10B50246A5
:1005A00005480068438AAAB98888C01A024C2468A2
:1005B0002082002010BD0000080000201400002050
:1005C000980000200C000020020000200050004095
:1005D0009C00002008681844ECE72DE9F041FF4832
:1005E000006800F110042688A068C0B1BEB1A588DB
:1005F000B54200D93546A8B2A16888470746208889
:10060000401B2080608828446080002000F0B9FFF3
:100610008046AAB20146384600F08EFD00BF208811
:1006200050B14FF44050EE4908800021084600F0D8
:10063000B5FF3020EB4908802088A188884204DB80
:100640000320E649096808721AE02088002804DDC2
:100650000520E2490968087212E0208880B9062066
:10066000DE49096808720021DF48006880B200F1A5
:100670000200DE4A42F810104FF03000D9490880DD
:10068000BDE8F0812DE9F047D448006800F110057D
:100690002E88D2480068077AEEB9042F1BD1D448BF
:1006A0000078012812D10021CF48006880B200F103
:1006B0000200CE4A42F810104FF03000C9490880BD
:1006C00000BF4FF00000CA49087003E00727102060
:1006D000C449088027E0AC88A64201D8042000E085
:1006E00002200746B44200D93446A0B2A968884720
:1006F0008046002000F03AFF8146A2B20146404603
:1007000000F000FDA1B2002000F048FF2888001B87
:1007100028806888204468803020B2490880000220
:10072000AF49088000BFAD4909680F72BDE8F08786
:1007300070B50226A94800684478A8480068007887
:1007400010F07F0F4AD1092C03D1FFF74AFD06466E
:1007500065E0052C14D1A1480068C0787F280BDC27
:100760009E480068807838B99C480068808818B92D
:100770009A480068807A08B108256DE000264EE0AE
:10078000032C14D195480068C07801280DD19348F6
:100790000068808848B991480068407A10F0200FBE
:1007A00003D0FFF7ECFE064639E0022637E0012CC5
:1007B00035D18A480068C07801280DD18748006883
:1007C000808848B985480068407A10F0200F03D02F
:1007D000FFF7D6FD064622E0022620E07F480068AB
:1007E000007800F07F00012805D10B2C17D1FFF70E
:1007F00027FD064613E079480068007800F07F0086
:1008000002280BD1012C03D1FFF7BAFD064606E002
:10081000032C04D1FFF759FE064600E002264EB134
:10082000744800684169E0B288470646032E01D14A
:10083000092511E00EB108250EE0062500216A48C1
:10084000006880B200F10200684A42F810104FF0D0
:1008500030006449088000BF604909680D7270BDAE
:100860002DE9F05F5D48006845780027BA46062DFF
:100870001AD15A480068007810F07F0F13D15749F9
:1008800009688878012803D15A490968CF690AE0C4
:10089000022803D1574909680F6A04E0032802D1EE
:1008A000544909684F6A95E085BB4C480068408808
:1008B00060BB4A480068C08802285BD1474800688E
:1008C000007918BB45480068007810F07F0F06D10A
:1008D00042480068808810B9AFF23B677AE03F4831
:1008E0000068007800F07F00012810D13B490968BA
:1008F0004879404909688A6900219047C8BB374850
:100900000068807AA8B3AFF2676763E032E03348EB
:100910000068007800F07F0002285BD12F48006853
:10092000407900F00F062D480068407900F070090A
:100930002A480068407910F0800F07D02E4800EB5D
:100940008600D0F8000C00F0300806E02A4800EBE2
:100950008600D0F8000C00F4405828480078B042D7
:1009600038D9B9F1000F35D1B8F1000F32D0AFF25C
:10097000CF672FE0082D08D118480068007810F0E4
:100980007F0F27D1AFF2C77724E00A2D22D1134879
:100990000068007800F07F0001281BD10F48006834
:1009A000807AB8B10D480068408898B90B48006853
:1009B000007978B909480068C08801280AD1074938
:1009C000096848790B4909688A690021904708B984
:1009D000AFF2B577EFB10148006811E008000020E0
:1009E000180000201A000020505C00400060004009
:1009F000000000200C000020005000409800002063
:100A0000A0F812A0AD48006887610020B847002414
:100A10000FE0AA4A12685078A94A126811698847FB
:100A20000446032C05D10920A44909680872BDE8D1
:100A3000F09FA2480068008AA0F57F41FF3904D1E9
:100A400009209E4909680872F1E7022C03D09B48EF
:100A50000068008A20B90820984909680872E6E70A
:100A600096480068007810F0800F3BD093480068EB
:100A7000B0F806B091480068008A584504D98F49FB
:100A80000968A1F810B023E08C480068008A8B49FF
:100A90000968C98888421BDA88480068008A884942
:100AA000096891F82C10884203DA00208549087003
:100AB0000EE082480068008A8149096891F82C108C
:100AC00090FBF1F201FB120010B901207D49087082
:100AD0007B48006890F82C10784800688182FFF706
:100AE000D1FD06E0032075490968087200037649C4
:100AF000088000BF9BE710B5744890F82C100020C8
:100B000000F06FFD6D480068007A082805D14002AA
:100B10006D49088010206E49088068480068007A96
:100B2000092801D1012000E00020C0B210BD08B5A5
:100B30006848006880B200F10400674951F810006D
:100B400080B201EB400000905C480068007A092800
:100B50002FD0009800785949096808700098401C07
:100B60000090009800785549096848700098401C2A
:100B700000900098801C0090009931F8020B0091C1
:100B800000F0ECFE4D49096848800098801C0090F8
:100B9000009931F8020B009100F0E0FE4749096826
:100BA00088800098801C009000980088434909685C
:100BB000C880012041490968087240480068C0881F
:100BC00010B9FFF7B5FD01E0FFF74AFEFFF793FF0D
:100BD00008BD30B50146414B1A78002012E00306EB
:100BE0003F4C04EB9353D3F8003C9BB248F68F7410
:100BF0002340C4B223430406394D05EB9454C4F892
:100C0000003C401C9042EAD341F08003354C236005
:100C100030BD10B529480068047A022C01D0042C9C
:100C200005D1FFF72FFD25480068047A1CE0062C4B
:100C300019D122480068407805280ED11F48006865
:100C4000007810F07F0F08D11C490968C878FFF7B9
:100C5000C0FF25490968086A8047194909688868FA
:100C60008047082400E00824144909680C72FFF743
:100C700042FF10BD10B511480068047A032C01D062
:100C8000052C05D1FFF7A9FC0C480068047A0EE09A
:100C9000072C05D10A490968C8688047082406E07E
:100CA000022C01D0042C01D1082400E008240349BF
:100CB00009680C72FFF71FFF10BD70470800002085
:100CC0000C00002000000020180000209C000020E4
:100CD0001A000020505C0040006000409800002096
:100CE000005000404C5C00401400002010B5084843
:100CF0000849086002200968087207480749086027
:100D0000074808490860054909680868804710BD18
:100D100028010020080000209C0000200C0000207A
:100D2000CC0000201400002010B5002476E147F626
:100D3000FF70EB490860EB48008800F00F00EA49BB
:100D4000087008460078F0BBE848006800F440509E
:100D5000E7490880E748D0F8000C00F03000E64989
:100D60000880E249096889B24BF68F7201EA0200F5
:100D700080F40050DF49C1F8000CDC49096889B2F1
:100D800048F6BF7201EA020080F02000D949C1F89C
:100D9000000CD448008810F0100F3DD1D3480068F3
:100DA00080B248F60F7100EA0100D249C1F8000C88
:100DB000FFF72FFFCD49096889B24BF68F7201EA20
:100DC0000200CB4900E0E9E0098811F4805F01D01E
:100DD00080F48050C649098811F4005F01D080F486
:100DE0000050C2490860C349D1F8001C89B248F6D6
:100DF000BF7201EA0200C049098811F0100F01D04A
:100E000080F01000BC49098811F0200F01D080F05B
:100E10002000B649086010BDB448006884B214F0E0
:100E2000800F3BD0B148006880B248F60F7100EAED
:100E30000100B049C1F8000CFFF7EBFEAB490968AF
:100E400089B24BF68F7201EA0200A949098811F4B0
:100E5000805F01D080F48050A549098811F4005FBB
:100E600001D080F40050A1490860A249D1F8001CCB
:100E700089B248F6BF7201EA02009F49098811F061
:100E8000100F01D080F010009B49098811F0200F4D
:100E900001D080F0200095490860BCE714F4006F91
:100EA0003CD092480068C0F30E0048F68F7100EA0B
:100EB00001009049C1F8000CFFF739FE8B49096821
:100EC00089B24BF68F7201EA02008949098811F450
:100ED000805F01D080F480508549098811F4005F5B
:100EE00001D080F40050814908608249D1F8001C8B
:100EF00089B248F6BF7201EA02007F49098811F001
:100F0000100F01D080F010007B49098811F0200FEC
:100F100001D080F02000754908607CE714F4004F90
:100F20007CD072480068C0F30E0048F68F7100EA6A
:100F300001007049C1F8000CFFF79CFE6B4909687D
:100F400089B24BF68F7201EA02006949098811F4EF
:100F5000805F01D080F480506549098811F4005FFA
:100F600001D080F40050614908606249D1F8001C4A
:100F700089B248F6BF7201EA02005F49098811F0A0
:100F8000100F01D080F010005B49098811F0200F8C
:100F900001D080F02000554908603CE752480078B5
:100FA000544901EB8000D0F8000C84B214F4004FD7
:100FB00018D04D48007801EB8000D0F8000CC0F349
:100FC0000E0048F68F71084047490978494A02EBFC
:100FD0008101C1F8000C44490978491E474A52F87A
:100FE0002100804714F0800F18D03F480078414915
:100FF00001EB8000D0F8000C80B248F60F71084079
:10100000394909783B4A02EB8101C1F8000C3649A5
:101010000978491E3A4A52F8210080473048006852
:1010200080B23049088010F4004F7FF480AE00BFDA
:10103000F1E610B500244AE047F6FF702849086041
:101040002848008800F00F002749087008460078FB
:10105000284901EB8000D0F8000C84B214F4004F52
:1010600019D02148007801EB8000D0F8000CC0F3C3
:101070000E0048F68F7108401B4909781D4A02EBA3
:101080008101C1F8000C18490978491E1B4A52F821
:10109000210080471BE014F0800F18D01248007820
:1010A000144901EB8000D0F8000C80B248F60F71B3
:1010B00008400D4909780F4A02EB8101C1F8000C84
:1010C00009490978491E0E4A52F821008047044810
:1010D000006880B20349088010F4004FACD110BD05
:1010E000445C00408800002004000020005C0040B8
:1010F00018000020005000401A0000206C00002062
:1011000050000020F0B5144604F1010C4FEA6C07C2
:10111000DFF844C00CEB41033D460AE00678401C72
:1011200090F800C046EA0C2223F8022B9B1C401CBE
:101130006D1E002DF2D1F0BDF0B5561C7510064E97
:1011400006EB41042B4604E080CC20F8017B401CD8
:101150005B1E002BF8D1F0BD00600040FC49086028
:101160007047FB48006880B27047FA4908607047D2
:10117000F848006880B27047F748006880B270474E
:10118000F64908607047F548006880B270474FF62E
:10119000F8710140F24A11607047F148006880B26E
:1011A0007047F04A02EB8002C2F8001C704701460B
:1011B000EC4800EB8100D0F8000C80B27047E94A9F
:1011C00002EB8002D2F8002C92B248F68F131A403C
:1011D0000A43E44B03EB8003C3F8002C704701463D
:1011E000E04800EB8100D0F8000C00F4C0607047CC
:1011F00010B5DC4B03EB8003D3F8003C9BB248F600
:10120000BF7403EA040211F0100F01D082F0100243
:1012100011F0200F01D082F02002D24B03EB8003AB
:10122000C3F8002C10BD10B5CE4B03EB8003D3F8F0
:10123000003C9BB24BF68F7403EA040211F4805F0A
:1012400001D082F4805211F4005F01D082F4005288
:10125000C44B03EB8003C3F8002C10BD10B502464D
:101260000B461046FFF7A3FF0446012B07D124F4D9
:101270008050BC4901EB8201C1F8000C08E0022B50
:1012800006D124F01000B74901EB8201C1F8000C2F
:1012900010BD0146B34800EB8100D0F8000C00F00F
:1012A000300070470146AF4800EB8100D0F8000CD9
:1012B00000F440507047AB4A02EB8002D2F8002C99
:1012C00092B248F6BF7302EA030181F0100181F087
:1012D0002001A44A02EB8002C2F8001C7047A14A18
:1012E00002EB8002D2F8002C92B24BF68F7302EA26
:1012F000030181F4805181F400519A4A02EB80028B
:10130000C2F8001C7047974901EB8001D1F8001C1E
:1013100089B241F4807148F68F721140914A02EB14
:101320008002C2F8001C70478E4901EB8001D1F8A1
:10133000001C89B248F68F6211408A4A02EB800293
:10134000C2F8001C7047874901EB8001D1F8001CEE
:1013500089B248F68F621140824A02EB8002C2F8DD
:10136000001C70477F4901EB8001D1F8001C89B255
:1013700041F4807148F68F7211407A4A02EB800284
:10138000C2F8001C7047774901EB8001D1F8001CBE
:1013900089B241F4807148F68F721140714A02EBB4
:1013A0008002C2F8001C70476E4901EB8001D1F841
:1013B000001C89B248F68F6211406A4A02EB800233
:1013C000C2F8001C70470146664800EB8100D0F867
:1013D000000C00F03000102801D1012000E00020B6
:1013E00080B2704701465F4800EB8100D0F8000CE6
:1013F00000F44050B0F5805F01D1012000E00020F2
:1014000080B27047574901EB8001D1F8001CC1F34D
:101410000E0148F68F721140524A02EB8002C2F868
:10142000001C70474F4901EB8001D1F8001C89B2C4
:1014300048F60F7211404B4A02EB8002C2F8001CC2
:101440007047484901EB8001D1F8001C89B248F689
:101450008F72114041F48041424A02EB8002C2F88F
:10146000001C70473F4901EB8001D1F8001C89B294
:1014700048F68F72114041F040013A4A02EB800277
:10148000C2F8001C7047374901EB8001D1F8001CFD
:1014900011F4804F0FD0334901EB8001D1F8001CCB
:1014A00089B248F68F72114041F480412D4A02EB17
:1014B0008002C2F8001C70472A4901EB8001D1F874
:1014C000001C11F0400F0FD0264901EB8001D1F82C
:1014D000001C89B248F68F72114041F04001214A48
:1014E00002EB8002C2F8001C70471E4A02EB800229
:1014F000D2F8002C92B248F68F731A400A43194B67
:1015000003EB8003C3F8002C70470146154800EB3D
:101510008100D0F8000C00F00F00704710B54A10A1
:1015200053000F4A126892B202EBC0020E4C44F80C
:10153000123010BD10B54A105300094A126892B219
:1015400002EBC00202F10402074C44F8123010BD55
:10155000405C0040445C0040485C00404C5C004003
:10156000505C004000500040006000400146F848D8
:10157000006880B200EBC100F64A52F8100080B259
:1015800070470146F248006880B200EBC10000F1EC
:101590000400F04A52F8100080B27047EC4A12681A
:1015A00092B202EBC00202F10202EA4B43F81210BF
:1015B000704702463E290BDD481111F01F0F01D183
:1015C000431E98B24FF4004343EA8023136007E0C0
:1015D000481011F0010F01D0431C98B28302136030
:1015E000704710B50246DA48006880B200EBC200CE
:1015F00000F10600D74C04EB40033E290BDD4811F7
:1016000011F01F0F01D1441EA0B24FF4004444EA70
:1016100080241C6007E0481011F0010F01D0441C29
:10162000A0B284021C6010BD0146C948006880B2A7
:1016300000EBC10000F10200C64A52F81000C0F3EE
:10164000090070470146C248006880B200EBC10043
:1016500000F10600BF4A52F81000C0F309007047BD
:1016600030B54B105C00BA4B1B689BB203EBC00358
:10167000B84D45F813404FEA62034FEA4304B64BB6
:10168000D3F8503C9BB203EBC00303F1040345F8CD
:10169000134030BD10B54A105300AD4A126892B2E3
:1016A00002EBC002AB4C44F8123010BD10B54A102A
:1016B0005300A74A126892B202EBC00202F1040280
:1016C000A44C44F8123010BD0146A148006880B215
:1016D00000EBC1009F4A52F8100080B270470146EB
:1016E0009B48006880B200EBC10000F10400994AF9
:1016F00052F8100080B2704730B50B46012B20D154
:101700009349096889B201EBC00101F10201914DD1
:1017100005EB41043E2A0BDD511112F01F0F01D1E0
:101720004D1EA9B24FF4004545EA8125256007E02A
:10173000511012F0010F01D04D1CA9B28D0225608D
:101740000BE0022B09D18249096889B201EBC00183
:1017500001F102017F4C44F81120012B20D17C497A
:10176000096889B201EBC00101F10601794D05EB71
:1017700041043E2A0BDD511112F01F0F01D14D1E05
:10178000A9B24FF4004545EA8125256007E05110D4
:1017900012F0010F01D04D1CA9B28D0225600BE0A3
:1017A000022B09D16A49096889B201EBC00101F134
:1017B0000601684C44F8112030BD30B503460129BC
:1017C00020D16348006880B200EBC30000F1020042
:1017D000604D05EB40043E2A0BDD501112F01F0F47
:1017E00001D1451EA8B24FF4004545EA8025256089
:1017F00007E0501012F0010F01D0451CA8B285027D
:1018000025600BE0022909D15148006880B200EB45
:10181000C30000F102004F4C44F8102030BD30B539
:101820000346012920D14A48006880B200EBC3007A
:1018300000F10600474D05EB40043E2A0BDD501138
:1018400012F01F0F01D1451EA8B24FF4004545EA22
:101850008025256007E0501012F0010F01D0451CD3
:10186000A8B2850225600BE0022909D1384800683A
:1018700080B200EBC30000F10600364C44F81020A3
:1018800030BD01463248006880B200EBC10000F173
:101890000200304A52F81000C0F3090070470146B8
:1018A0002B48006880B200EBC10000F10600294A15
:1018B00052F81000C0F30900704701462448006840
:1018C00080B200EBC10000F10600224A52F810007D
:1018D00010F47C4F01D0012070471D48006880B291
:1018E00000EBC10000F102001A4A52F81000800516
:1018F000800D01D00220EFE70020EDE7012910D193
:10190000154A02EB8002D2F8002C92B248F68F738F
:101910001A4042F04002104B03EB8003C3F8002C46
:1019200011E002290FD10C4A02EB8002D2F8002C00
:1019300092B248F68F731A4042F48042064B03EB92
:101940008003C3F8002C7047024641EA022070472A
:10195000505C004000600040005000400146CAB2A8
:101960000B1243EA0220704730BF704720BF704718
:1019700040BF7047BFF36F8F7047BFF34F8F704703
:10198000BFF35F8F704701DF7047EFF3148070473C
:1019900080F31488BFF36F8F7047EFF309807047AF
:1019A00080F309887047EFF30880704780F3088858
:1019B000704762B6704772B67047EFF31080704799
:1019C00071B6704761B67047EFF31380704780F3CC
:1019D00011887047EFF31280704740BA704700BA21
:1019E0007047000001F02AFA01F07AFA01F090FA4B
:1019F000FFF77CF94FF40051124800F0D9FB1FE0CB
:101A000011480068E0B111480068052818D1104855
:101A10000078312805D14FF400510A4800F0CAFB84
:101A200008E00B480078302804D14FF400510548F5
:101A300000F0BEFB074801F047FB002002490860A8
:101A4000DEE70000001001404400002020010020DB
:101A5000940100201C000020FA49096801F03801B7
:101A6000F84A116011460968014311607047F54951
:101A7000096821F00801F34A116011460968014321
:101A800011607047EF49096821F01001ED4A1160BB
:101A900011460968014311607047EB48E949486005
:101AA000EA4848607047E748006940F08000E5492F
:101AB000086170470420E349C96801F00101012968
:101AC00001D101200EE0DF49C96811F0040F01D0F7
:101AD000022007E0DB49C96811F0100F01D0032094
:101AE00000E0042070470020FF2000E0401E002896
:101AF000FCD1704770B504460425FFF7DBFF0546AF
:101B000005E0FFF7F0FFFFF7D5FF0546641E012D46
:101B100001D1002CF5D104B90525284670BD70B55A
:101B20000546042440F6FF70FFF7E4FF0446042C4A
:101B300019D1C448006940F00200C2490861084652
:101B40004561006940F04000086140F6FF70FFF712
:101B5000D1FF0446012C06D0BA48006941F6FD7158
:101B60000840B8490861204670BD10B5042440F60D
:101B7000FF70FFF7BFFF0446042C18D1B14800697D
:101B800040F00400AF4908610846006940F0400099
:101B9000086140F6FF70FFF7ADFF0446012C06D048
:101BA000A848006941F6FB710840A6490861204633
:101BB00010BD10B5042440F6FF70FFF79BFF0446EC
:101BC000042C3CD1A0489F498860A0488860084602
:101BD000006940F0200008610846006940F04000BC
:101BE000086140F6FF70FFF785FF0446042C1DD105
:101BF0009448006941F6DF7108409249086108463F
:101C0000006940F010000861A520914908804FF05C
:101C10000F00FFF76FFF0446012C10D089480069C0
:101C200041F6EF7108408749086108E0012C06D0B1
:101C30008448006941F6EF710840824908612046F6
:101C400010BD70B505460E4604240F20FFF752FF65
:101C50000446042C25D17B48006940F001007949F5
:101C600008612E800F20FFF745FF0446042C0FD19A
:101C7000300C68800F20FFF73DFF0446012C10D088
:101C80007048006941F6FE7108406E49086108E03D
:101C9000012C06D06B48006941F6FE710840694985
:101CA0000861204670BD70B505460E4604240F201D
:101CB000FFF720FF0446042C13D16248006940F06E
:101CC0000100604908612E800F20FFF713FF0446D2
:101CD000012C06D05B48006941F6FE710840594965
:101CE0000861204670BD70B505460E4604240F20DD
:101CF000FFF700FF0446042C17D153485149886070
:101D0000524888600846006940F0100008612E8043
:101D10000F20FFF7EFFE0446012C06D0494800696A
:101D200041F6EF71084047490861204670BD2DE932
:101D3000F04704464FF6FF763746B046B1460425D5
:101D4000E443E6B2C4F30727C4F307484FEA146933
:101D50000F20FFF7CFFE0546042D3ED13A48394902
:101D600088603A4888600846006940F010000861C1
:101D7000FF2E06D0374806804FF00F00FFF7BAFE5F
:101D80000546042D08D1FF2F06D0334807804FF0B9
:101D90000F00FFF7AFFE0546042D09D1B8F1FF0F84
:101DA00006D02E48A0F80C880F20FFF7A3FE0546AA
:101DB000042D09D1B9F1FF0F06D02848A0F80E98DC
:101DC0000F20FFF797FE0546012D06D01D4800693C
:101DD00041F6EF7108401B4908612846BDE8F087CD
:101DE00070B50546042440F6FF70FFF783FE0446F5
:101DF000042C50D114481349886014488860084660
:101E0000006940F0200008610846006940F0400089
:101E1000086140F6FF70FFF76DFE0446042C31D1D7
:101E20000848006941F6DF71084006490861084624
:101E3000006940F01000086195B100200449088055
:101E400011E000000020024023016745AB89EFCD7F
:101E500000F8FF1F08F8FF1F0AF8FF1F00F0FF1F20
:101E6000A5204549088040F6FF70FFF743FE044671
:101E7000012C10D04148006941F6EF7108403F49FC
:101E8000086108E0012C06D03C48006941F6DF718A
:101E900008403A490861204670BD2DE9F0410746E7
:101EA0000D46164604243648344988603548886013
:101EB0000F20FFF71FFE0446042C1AD12F4800699B
:101EC00040F010002D49086147EA0500304340F01A
:101ED000F8002D4908804FF00F00FFF70BFE044675
:101EE000012C06D02548006941F6EF7108402349CE
:101EF00008612046BDE8F0812048C069800870472D
:101F00001E48006A704700201C49C96911F0020F81
:101F100001D0012000E00020704700201749096827
:101F200011F0200F01D0012000E00020704729B1FE
:101F3000124A12690243114B1A6104E00F4A1269F6
:101F400082430E4B1A61704701460020012908D1D7
:101F50000A4AD26912F0010F01D0012008E00020E6
:101F600006E0064AD2680A4201D0012000E00020C3
:101F700070470249C860704700F8FF1F0020024008
:101F800023016745AB89EFCD02F8FF1F10B504466A
:101F9000C449601A8C422FD009DCC348201810D0E5
:101FA000B0F5806F16D0B0F5006F4AD11BE0B0F5E8
:101FB000806F2AD0B0F5006F30D0B0F5406F40D1BF
:101FC00035E00121042000F028FD0021042000F06C
:101FD00024FD37E00121082000F01FFD002108202A
:101FE00000F01BFD2EE00121102000F016FD002165
:101FF000102000F012FD25E00121202000F00DFD51
:102000000021202000F009FD1CE00121402000F00B
:1020100004FD0021402000F000FD13E0012180209C
:1020200000F0FBFC0021802000F0F7FC0AE0012119
:10203000080200F0F2FC00214FF4807000F0EDFC8B
:1020400000E000BF00BF10BD10B50121084600F040
:10205000E4FC0021012000F0E0FC10BD2DE9F0417E
:10206000024600250026002000230024002791F8C6
:1020700003C00CF00F0591F803C01CF0100F03D043
:1020800091F802C04CEA0505B1F800C01CF0FF0F42
:1020900030D0146800202AE04FF0010C0CFA00F355
:1020A000B1F800C00CEA03069E421FD183004FF036
:1020B0000F0C0CFA03F7BC4305FA03FC4CEA0404CA
:1020C00091F803C0BCF1280F05D14FF0010C0CFAB8
:1020D00000FCC2F814C091F803C0BCF1480F05D150
:1020E0004FF0010C0CFA00FCC2F810C0401C08288C
:1020F000D2D31460B1F800C0BCF1FF0F34DD5468D6
:1021000000202EE000F1080C4FF0010808FA0CF353
:10211000B1F800C00CEA03069E4221D183004FF0C3
:102120000F0C0CFA03F7BC4305FA03FC4CEA040459
:1021300091F803C0BCF1280F05D100F1080C08FA92
:102140000CF8C2F8148091F803C0BCF1480F07D115
:1021500000F1080C4FF0010808FA0CF8C2F81080E2
:10216000401C0828CED35460BDE8F0814FF6FF71C3
:102170000180022181700421C17070470246002055
:1021800093680B4201D0012000E000207047014617
:10219000886880B2704702460020D3680B4201D0A5
:1021A000012000E0002070470146C86880B27047F7
:1021B00001617047416170470AB1016100E041610E
:1021C0007047C16070474FF480320A438261816179
:1021D000826182698269704702460020334B186829
:1021E0004FF68073184040EA021008432F4B1860E6
:1021F00070472F49C8617047F0B50A460023002494
:1022000000210025294E7168C0F3034583B200F414
:102210004016B6F5401F08D121F07061234E766854
:1022200026F07066214F7E6012E000F48016B6F54D
:10223000801F06D1032606FA05F4A14341F0706120
:1022400006E0460D360103FA06F6B14341F070612F
:1022500022B1460D360103FA06F63143134E716082
:10226000F0BD30B500228B071C0F0F2303FA04F2D8
:102270000E4B08338C1053F8243093430B4C083426
:102280008D1044F8253023468C1053F824308C07E9
:10229000240F00FA04F42343044C08348D1044F84E
:1022A000253030BD0014014000F8FEBF00000140A1
:1022B000000020420020411EF84A11606FF0704279
:1022C000F749C1F884204FF0FF314FF0E022C2F807
:1022D00080126FF07042F3490A6000BF04E00022F0
:1022E000F14941F82020401C0F28F8D37047002006
:1022F0004FF02061ED4A116001464FF0E022C2F834
:10230000081DEB49EB4A1160014602F1040211601D
:1023100002F10402116000BF05E00022E5490C3122
:1023200041F82020401C0328F7D30021E24A116025
:102330004FF0FF314FF0E022C2F8281DDF4A116054
:102340004FF0E022C2F8301D7047D9490143D94A05
:1023500011607047F0B500210022002300250F24F2
:10236000C678EEB3D34E366806F4E066C6F5E0668E
:102370004FEA1621C1F1040524FA01F4467806FA61
:1023800005F1867806EA040646EA01014FEA0111E2
:1023900006784FEA86764FEAD66601FA06F1C24E13
:1023A00007784FEAA70756F8272006784FEA86767F
:1023B0004FEAD6674FF0FF0606FA07F322EA030258
:1023C00001EA030142EA0102B74E07784FEAA70784
:1023D00046F82720067806F01F074FF0010600E0B8
:1023E0000BE006FA07F607784FEA67174FF0E02C84
:1023F0000CEB8707C7F800610BE0067806F01F07B3
:102400000126BE40A54F90F800C04FEA6C1C47F86B
:102410002C60F0BD0021017041708170C170704767
:1024200010B5FFF7C8FA10BD10B5FFF7C2FA10BD1E
:1024300010B5FFF7C5FA10BD10B5FFF7C3FA10BD10
:1024400010B504462001FFF7C2FA10BD10B5FFF722
:10245000C1FA10BD95480068C0F30930704710B547
:1024600001460020002201F01F04012303FA04F2B8
:102470008A4B80334C1153F824301340934201D1DE
:10248000012000E0002010BD8D490860704700F079
:102490001F0201219140834A121F431142F8231069
:1024A000704782480068C0F30900704710B50146C4
:1024B0000020002201F01F04012303FA04F2794BEB
:1024C0007C334C1153F824301340934201D1012046
:1024D00000E0002010BD7B48006870477A4A0A403F
:1024E00002437A4B1A6070477148001D71490860B9
:1024F00070476F48401C6F490860704741B1744A8B
:10250000126842EA00024FF0E023C3F8102D07E002
:102510006F4A126822EA00024FF0E023C3F8102D40
:10252000704710B5002200F01F04012303FA04F2E3
:1025300041B1614B1B6843EA02034FF0E024C4F849
:10254000243D07E05C4B1B6823EA02034FF0E024C4
:10255000C4F8243D10BDF0B503460C4615460020D6
:10256000FF2200260021534F3F6807F4E067C7F5BC
:10257000E0674FEA1721C1F1040022FA01F204FAE0
:1025800000F105EA020747EA01014FEA011103F0F1
:10259000C0004FEA9010C3F301224FEAC20701FACC
:1025A00007F14FEAC20C4FF0FF0707FA0CF6494F4C
:1025B00057F8207027EA0607DFF818C14CF820709A
:1025C000674657F8207047EA01074CF82070F0BDC5
:1025D00010B50246002000230021910A01F00F01EE
:1025E000012404FA01F1344C246804EA01038B420B
:1025F00001D1012000E0002010BD002100F01F01EA
:102600002A4A12684FF0010303FA01F342EA030277
:102610004FF0E023C3F8042D704710B5002100F0FF
:102620001F01224A1268A1F101034FF0010404FACC
:1026300003F442EA04024FF0E023C3F8042D10BD76
:1026400010B50246002000230021C2F3833101248B
:1026500004FA01F1184C246804EA01038B4201D109
:10266000012000E0002010BD30B50146002000220E
:102670000023C1F38142C1F3015312B90F4C20680A
:1026800030E0012A2CD1144C24684FEAC30524FA07
:1026900005F0022B22D000F00F0023E080E100E0E3
:1026A00000E100E084E200E000E400E004ED00E08E
:1026B0000000FA050CED00E024ED00E02CED00E058
:1026C00000EF00E000ED00E080FFFF1F08ED00E0FC
:1026D00010ED00E018ED00E028ED00E0C0B201E0F0
:1026E000074C206830BD014600200022C1F3805213
:1026F00012B9044B186801E0034B186870470000DA
:1027000030ED00E034ED00E038ED00E0DE48006838
:1027100040F00100DC49086008464068DB49084099
:10272000D949486008460068D9490840D649086038
:102730000846006820F4802008600846406820F4BD
:10274000FE004860002088607047CF49096821F486
:102750008031CD4A11601146096821F48021116051
:10276000B0F5803F03D0B0F5802F0ED106E0C6490A
:10277000096841F48031C44A116007E0C249096820
:1027800041F4A021C04A116000E000BF00BF7047C3
:1027900010B501460022002300204A11012A02D16F
:1027A000B94C236806E0022A02D1B74C236A01E043
:1027B000B54C636A01F01F02012494401C4201D011
:1027C000012000E0002010BD10B5002400BF312022
:1027D000FFF7DEFFAF490870AF480068401CAE4904
:1027E0000860AC48007828B908460068A0F58071F8
:1027F000FF39ECD13120FFF7CBFF08B1012400E015
:102800000024204610BD014600209F4A106820F099
:10281000F80040EAC10010607047A04908607047A6
:1028200002460020984B586820F47C1042EA0103CD
:102830001843954B586070479849086670470146A1
:102840000020914A506820F0030008435060704710
:102850008D48406800F00C007047014600208A4A0D
:10286000506820F0F0000843506070470146002097
:10287000854A506820F4E060084350607047014684
:102880000020814A506820F4605040EAC100506046
:10289000704729B17C4A527A02437B4B5A7206E058
:1028A000794A527AC343DBB21A40774B5A72704767
:1028B0007B490860704701460020734A506820F445
:1028C00040400843506070470021764A11706E4ABC
:1028D00082F82010012802D0042808D103E0012149
:1028E000704A117004E005216E4A117000E000BFCB
:1028F00000BF70476C49086070476349096A01432B
:10290000614A1162704769490860704730B500211B
:102910000022002400235C4D6D6805F00C0121B1FC
:10292000042905D0082923D105E0614D056022E086
:102930005F4D05601FE0544D6D6805F4701202256F
:1029400005EB9242504D6D6805F480341CB9594D29
:10295000554305600BE04C4D6D6815F4003F03D006
:10296000544D5543056002E0514D5543056002E06A
:102970004F4D056000BF00BF434D6D6805F0F0018D
:1029800009094D4D6B5C0568DD4045603E4D6D6845
:1029900005F4E061090A484D6B5C4568DD408560DF
:1029A000394D6D6805F46051C90A434D6B5C45684B
:1029B000DD40C560344D6D6805F44041890B3F4DE5
:1029C0006B5CC568B5FBF3F5056130BD29B12E4AD6
:1029D000526902432C4B5A6104E02B4A52698243EC
:1029E000294B5A61704729B1274A92690243264B05
:1029F0009A6104E0244A92698243234B9A617047AA
:102A000029B1214AD26902431F4BDA6104E01E4A10
:102A1000D26982431C4BDA61704729B11A4AD268E5
:102A20000243194BDA6004E0174AD2688243164B1E
:102A3000DA60704729B1144A12690243124B1A61D5
:102A400004E0114A126982430F4B1A6170471C4916
:102A5000086070471149C86470470B49C8717047D6
:102A60000948406A40F08070074948627047014653
:102A70000020054A92680A4201D0012000E00020AF
:102A80007047014988727047001002400000FFF84B
:102A9000FFFFF6FE28000020240000200000424234
:102AA000D800424220100240800442423C0442428C
:102AB00000127A0000093D00483700085837000826
:102AC0004004424210B50446D949601A8C422BD0CA
:102AD00006DCD848201813D0B0F5806F38D119E043
:102AE000B0F5806F2AD0B0F56C4F31D10121880349
:102AF000FFF793FF00214FF48040FFF78EFF28E09F
:102B000001214804FFF796FF00214FF40030FFF742
:102B100091FF1EE001218804FFF78CFF00214FF494
:102B20008020FFF787FF14E00121C804FFF782FF30
:102B300000214FF40020FFF77DFF0AE00121080586
:102B4000FFF778FF00214FF48010FFF773FF00E0DC
:102B500000BF00BF10BD2DE9F04786B005460E4608
:102B60000024A24600BF00BF00272F462C8A4CF647
:102B7000FF700440F08804432C82AC894EF6F310B9
:102B80000440B08831890843718908430443AC810B
:102B9000AC8A4FF6FF400440B0890443AC8201A8E0
:102BA000FFF7B4FEA448874202D1DDF810A001E08F
:102BB000DDF80CA00AEBCA0000EB0A1031688900AE
:102BC000B0FBF1F86420B8FBF0F0040120096421A7
:102BD00001FB1089322000EB0910B0FBF1F000F08E
:102BE0000F0004432C8106B0BDE8F0874FF4165166
:102BF000016000218180C18001810C21418100217F
:102C00008181704710B502460020108A4FF2FF0301
:102C100018400B884C8823438C882343CC8823435B
:102C20001843108210BD0021018041808180C18045
:102C3000704721B1828942F40052828104E0828986
:102C40004DF6FF731A4082817047F0B503460024A9
:102C50000026002500201846C1F3421401F01F068B
:102C6000012707FA06F5012C01D10C3004E0022CF3
:102C700001D1103000E014301AB107682F4307600B
:102C800002E00768AF430760F0BD10B51AB1838A50
:102C90000B43838204E0838ACC43A4B22340838223
:102CA00010BD028A4FF6F0731A400282028A0A436C
:102CB0000282704782894FF2FF731A4082818289B3
:102CC0000A438281704721B1828942F002028281E7
:102CD00004E082894FF6FD731A4082817047028AB0
:102CE0004FF6DF731A400282028A0A43028270475B
:102CF00021B1028A42F48042028204E0028A4BF649
:102D0000FF731A4002827047C1F308028280704745
:102D100001468888C0F308007047818941F00101AD
:102D200081817047028BD2B20283028B42EA012278
:102D300002837047028B02F47F420283028B0A43B4
:102D40000283704721B1828A42F02002828204E02D
:102D5000828A4FF6DF731A408282704721B1828ADD
:102D600042F01002828204E0828A4FF6EF731A402A
:102D70008282704721B1828A42F00802828204E096
:102D8000828A4FF6F7731A4082827047828A4FF622
:102D9000FB731A408282828A0A438282704721B181
:102DA000828A42F00202828204E0828A4FF6FD7338
:102DB0001A40828270470246002013880B4201D0DD
:102DC000012000E000207047CA430280704770B5C0
:102DD00002460B460024002100250020C3F34215C3
:102DE00003F01F01012606FA01F1012D02D1968997
:102DF000314006E0022D02D1168A314001E0968A68
:102E000031401C12012606FA04F41688344011B130
:102E10000CB1012000E0002070BD10B5002200239D
:102E20000A1201249440A3B2DC43048010BD0000C8
:102E3000004C004000BCFFBF0038014008B5FFF760
:102E400065FC4FF48030FFF780FCFFF7BDFCC14903
:102E500008700846007801282AD11020FEF712FEDB
:102E60000220FEF7F9FD0020FFF7F7FC0020FFF736
:102E700006FD4FF48060FFF7F9FC4FF40040FFF7C8
:102E80001AFD4FF4E0114FF48030FFF7C9FC012028
:102E9000FFF7D2FC00BF3920FFF77AFC0028FAD0F8
:102EA0000220FFF7CCFC00BFFFF7D2FC0828FBD1C3
:102EB00001211420FFF797FD4FF40050ADF80000FA
:102EC00003208DF8020010208DF803006946A24807
:102ED000FFF7C4F84FF400519F48FFF769F908BDA8
:102EE00010B50020FFF7E4FC0121C805FFF788FDBD
:102EF00010BD03209949086070479948817A19B13B
:102F00000521964A116002E00121944A1160704740
:102F100008B500214FF00060FFF7E0FA4FF4C06001
:102F2000FFF713FA14208DF8000000208DF801003F
:102F30008DF8020001208DF803006846FFF70AFAB9
:102F400008BD10B504462CB14FF400518248FFF77C
:102F500031F904E04FF400517F48FFF729F910BD23
:102F600010B54FF416507F49086000208880C88053
:102F70004FF4C0600881002088810C2048817A4885
:102F8000FFF7E9FD012240F225517748FFF75DFE8A
:102F900010BD10B57548007920B1012806D002286F
:102FA0000ED108E000206F49C8800DE04FF440507A
:102FB0006C49C88008E04FF400506A49C88003E0BB
:102FC000FFF7CEFF002010BD00BF6848407920B158
:102FD000012806D002280ED108E0002061490881AE
:102FE0000DE04FF480605F49088108E04FF4C06055
:102FF0005C49088103E0FFF7B3FF0020E3E700BF6F
:103000005A488079072802D0082809D103E0002017
:103010005449888008E04FF480505249888003E08A
:10302000FFF79EFF0020CEE700BF504800684D49E3
:103030000860002088810C2048814B48FFF78BFDF9
:1030400001214948FFF7F5FD0120BCE770B50546B1
:103050000E46002404E0295D4348FFF755FE641C3A
:10306000B442F8D370BD10B53E48808848B93E4898
:10307000FFF74EFE00F07F003D493E4A126888543B
:103080000CE038488088B0F5805F07D13648FFF7FC
:103090003FFEC1B23648374A12688154354800684D
:1030A000401C344908600846006882B2C02130489C
:1030B000FEF728F82F48006881B20120FEF76EFA6B
:1030C0000120FEF7F8F810BD70B5044600251CE09D
:1030D0006068405D2649274A126888542548006880
:1030E000401C244908600846006882B2C02120487C
:1030F000FEF708F81F48006881B20120FEF74EFA7B
:103100000120FEF7D8F8681CC5B22068A842DFDCB1
:1031100070BD10B5184B1868184BD3F8EC17184B46
:103120001A68A8B1174CA070030A2371030CA3718D
:10313000030E2372A1720B0A23730B0CA3730B0EE5
:103140002374A274130A2375130CA375130E23762C
:1031500010BD0000290000200010014020010020C7
:103160002801002044010020003801409000002088
:103170005401002048000020E8F7FF1F00F0FF1F67
:10318000F0F7FF1F2A000020704700BFFEE700BFD6
:10319000FEE700BFFEE700BFFEE7704770477047DD
:1031A0007047704770477047704770477047704767
:1031B0007047704770477047704770477047704757
:1031C0007047704770477047704710B500F050F86F
:1031D00010BD704770477047704770477047704721
:1031E0007047704770477047704770477047704727
:1031F000704710B540F225510E48FFF7E8FD08B1C1
:10320000FFF731FF10BD7047704770477047704738
:1032100070477047704770477047704770477047F6
:1032200070477047704770477047704770477047E6
:10323000704700000038014010B50320FEF702FA85
:10324000084908600846006882B24FF48871064851
:10325000FDF772FF0320FEF742F810BD002003497E
:1032600008607047440000209401002048000020BE
:1032700010B518480068184908800846008800F40E
:10328000806016490988084206D04FF6FF30114980
:1032900008601349486880470F48008800F40070B0
:1032A0000E490988084209D04FF6FF5009490860C5
:1032B0000C48007800F101000A49087006480088AF
:1032C00000F4004005490988084201D0FDF72CFDB3
:1032D00010BD0000445C0040880000201200002067
:1032E0009C0000204C00002010B5FFF712FF0020CA
:1032F00089490968887200F029F900208749086027
:103300004FF4064086490880084600888549C1F880
:10331000400CFFF725FE00208349086010BD10B562
:1033200000207D49096888728048C0797A49096817
:103330004872002078490968C872FDF728FF4FF4E9
:1033400000710020FDF73BFF10210020FDF750FF2A
:1033500040210020FEF7EEF880210020FEF7DEF885
:103360000020FDF7F0FF724890F82C100020FEF7C7
:1033700038F90020FDF7B3FF00210120FDF71FFF02
:10338000C0210120FEF7CAF820210120FDF730FFFF
:1033900000210120FDF747FF4FF4C0610220FDF737
:1033A0000EFF4FF480710220FEF7B8F800210220D2
:1033B000FDF739FF20210220FDF71AFF002103202D
:1033C000FDF7FDFE4FF488710320FEF7B3F84021AE
:1033D0000320FEF706F94FF440510320FDF723FFC9
:1033E00000210320FDF704FF0020FDF7F2FB012080
:1033F0004D49086010BD4F48817A11B105214A4AF4
:1034000011607047042048490860704710B54A4869
:103410000078202804D1FFF7BCFD00204649087041
:1034200010BD7047014629B908203B4A1268108236
:10343000002070474148FCE7014629B90820364A78
:1034400012681082002070473C48FCE770B50446C3
:103450000025212C09D130480068007800F07F0059
:10346000212810D1AFF22F050DE0202C0BD12A48D6
:103470000068007800F07F00212801D1AFF25B05E1
:1034800020202D4908700DB9022070BD2248006827
:10349000856100212048006841820020A847002063
:1034A000F3E701461C480068007800F07F002128FF
:1034B00007D1022901D100207047222901D1002023
:1034C000FAE70220F8E710B504461D492046FDF74B
:1034D00065F810BD10B504461A492046FDF75EF8A0
:1034E00010BD70B505460C480068C478042C01DD99
:1034F000002070BD144800EBC4012846FDF74EF8CB
:10350000F7E70246002901DD02207047012A01DDAC
:103510000220FAE70020F8E708000020445C0040A1
:103520001200002000500040200100206E370008EB
:103530009C000020280100208C000020900000202A
:10354000F0000020F80000200001002010B501204C
:10355000FFF7F7FC0124544804604FF00000534982
:103560000880084600885249C1F8400C4FF000001E
:10357000504908604FF4E0504C49088008460088E4
:103580004B49C1F8400C4FF0000010BD10B50120B0
:10359000454908604FF000004549C1F8440CFFF769
:1035A000D0FC0320404908604FF0000010BD10B56A
:1035B0003D48006884B244F008043D48C0F8404CDF
:1035C0003948006884B244F004043948C0F8404CDB
:1035D000FFF78FFC10BD10B53348006884B224F0AB
:1035E00004043348C0F8404CFFF787FC4FF4064012
:1035F0002D49086010BD70B50546072D01D02E4835
:1036000005702D480078082846D2DFE800F0040A4B
:10361000101621314647FFF7DEFF062026490870C5
:1036200040E0FFF7D8FF0420234908703AE0022069
:10363000214948700320087034E01F484078401E3C
:103640001D4948700846407808B90420087029E0F0
:103650001548006884B244F010041548C0F8404C86
:103660004FF00500144908704FF00A00487019E047
:1036700011484078401E104948700846407850B9BB
:103680000948006884B224F010040948C0F8404C8E
:103690004FF00600087005E000BF00BF0620064995
:1036A000087000BF00BF70BD405C004012000020E9
:1036B00000500040445C00402501002070477047E6
:1036C0007047754600F028F8AE4605006946534637
:1036D00020F00700854618B020B5FCF763FDBDE873
:1036E00020404FF000064FF000074FF000084FF069
:1036F000000B21F00701AC46ACE8C009ACE8C009FA
:10370000ACE8C009ACE8C0098D4670470446AFF389
:1037100000802046FCF733FD00487047D4010020AC
:1037200001487047704700BFD801002001491820A8
:10373000ABBEFEE726000200704710B5FFF7F0FFB2
:103740004FF00001016010BD000000000102030401
:103750000102030406070809020406081201000218
:1037600002000040830440570002010203010902E5
:103770004300020100C032090400000102020100FE
:10378000052400100105240100010424020205247F
:10379000060001070582030800FF09040100020A70
:1037A00000000007050302400000070581024000F9
:1037B00000040309042603530054004D006900630C
:1037C0000072006F0065006C006500630074007299
:1037D000006F006E006900630073003203530054F1
:1037E000004D003300320020005600690072007462
:1037F00000750061006C00200043004F004D002068
:103800000050006F007200740020002000526563B9
:103810006569766521000000383800080000002046
:103820002801000028010008603900082801002054
:103830001003000044010008000000000000000028
:103840000000000000000000000000000000000078
:1038500000000000080000000D3800080000000013
:1038600000001A03530054004D00330032003100B1
:103870003000000000000000000000000000000018
:1038800000000000000000005D320008BB0C0008D2
:10389000BB0C0008BB0C0008BB0C0008BB0C0008EC
:1038A000BB0C0008BB0C0008BB0C00083932000838
:1038B000BB0C0008BB0C0008BB0C0008BB0C0008CC
:1038C000000000000000000000C20100000008002D
:1038D00004010000E93200081F3300080D3400081D
:1038E000233400084D340008A334000803350008D1
:1038F000C7340008D5340008E33400080000000095
:1039000040000000BB0C0008F7330008BB0C0008A7
:10391000BB0C0008BB0C0008BB0C0008BB0C00086B
:10392000BB0C0008053400085C37000812000000DA
:103930006E37000843000000B137000804000000A3
:10394000B537000826000000DB3700083200000011
:103950002A0000201A000000000000000100000002
:040000050800018D61
:00000001FF
